:1000000041C065C064C063C062C061C060C05FC001
:100010005EC0A4C35CC05BC05AC059C058C057C0C2
:1000200056C0E6C354C00000000037003400310061
:1000300000000000000000000004050700000000B0
:1000400000000000000000010204081020408001B0
:100050000204081020010204081020408040000023
:1000600000003800350032000404040404040404D1
:10007000020202020202030303030303020203005B
:100080000705060911241FBECFE5D4E0DEBFCDBFB2
:1000900011E0A0E6B0E0E4EEF4E102C005900D92BC
:1000A000A839B107D9F722E0A8E9B1E001C01D9253
:1000B000A635B207E1F710E0C1E4D0E003C0219714
:1000C000FE01D9D8C034D107D1F714D5FFC998CFD4
:1000D0008F929F92AF92BF92CF92DF92EF92FF9258
:1000E0004C01AA24BB24C72ED82EE92EFF24BC2DF8
:1000F000A62F20914402482D222391F0A22FB0E098
:10010000A89DF001A99DF00DB89DF00D11244F2F71
:100110002C9D60011124BD2D269FC0011124A92F03
:10012000E0914A0280914502909146022091470257
:10013000E21721F0E80FF92FF11D1082E09147023C
:10014000E80FF92FF11D4083E0914802E80FF92FE5
:10015000F11DB08320914902820F911DFC01A08303
:10016000FF90EF90DF90CF90BF90AF909F908F90D7
:1001700008950000000083EE93E00197F1F70895E1
:1001800090E0FC01E05DFF4F3491FC01E95BFF4F23
:100190002491FC01E859FF4FE491EE23E1F0332371
:1001A00049F03530C9F03730D1F0343019F48FB51B
:1001B0008F778FBDF0E0EE0FFF1FE25AFF4FA59142
:1001C000B4918FB7F89461110EC09C91E22FE09525
:1001D000E923EC938FBF08958FB58F7DEACF85B566
:1001E0008F7D85BDE7CFEC91E22BF3CFCF93DF93EB
:1001F00090E0FC01E95BFF4F249188599F4FFC017F
:1002000084918823D1F090E0880F991FFC01EA5D6A
:10021000FF4FA591B491FC01E25AFF4FC591D491D3
:1002200061110EC09FB7F8948C91E22FE0958E2358
:100230008C932881E223E8839FBFDF91CF910895BB
:100240008FB7F894EC91E22BEC938FBFF6CF3FB7CA
:10025000F89480912C0290912D02A0912E02B091E1
:100260002F0222B708B600FE05C02F3F19F00196F5
:10027000A11DB11D3FBFBA2FA92F982F8827BC0100
:10028000CD01620F711D811D911D43E0660F771F27
:10029000881F991F4A95D1F708950F931F93CF9305
:1002A000DF93CDB7DEB729970FB6F894DEBF0FBE48
:1002B000CDBFCDDF00914B0210914C0220914D0239
:1002C00030914E02601771078207930740F46093E4
:1002D0004B0270934C0280934D0290934E0200911A
:1002E0004B0210914C0220914D0230914E02601B46
:1002F000710B820B930B6C32714081059105C8F232
:10030000F89480914002909141029A838983A09150
:100310004502B0914602FD0131968C91898780910A
:100320003C02A0914F02B0915002882309F42DC1E4
:100330001B82A233B10509F071C092B380915102C2
:10034000982B988792B3809589238F838F818C8394
:10035000898587FF02C088858C8358856F81498590
:100360003C812B8189819A8152BB262F32BB00C0F0
:1003700046FD252F62BB00C052BB362F22BB00C0FA
:1003800045FD352F62BB00C052BB262F32BB00C0DB
:1003900044FD252F62BB00C052BB362F22BB00C0DC
:1003A00043FD352F62BB00C052BB262F32BB00C0BD
:1003B00042FD252F62BB00C052BB362F22BB00C0BE
:1003C00041FD352F62BB00C052BB262F32BB00C09F
:1003D00040FD252F62BB019752BB362F22BB4191B6
:1003E00047FD352F62BB01F649873C832B839A83F7
:1003F000898378942CDF60934B0270934C02809336
:100400004D0290934E0229960FB6F894DEBF0FBEB0
:10041000CDBFDF91CF911F910F910895A833B10502
:1004200009F058C098B380915102982B988798B3DF
:10043000809589238F838F818C83898587FF02C074
:1004400088858C8358856F8149853C812B81898182
:100450009A8158BB262F38BB00C046FD252F68BBAC
:1004600000C058BB362F28BB00C045FD352F68BBE8
:1004700000C058BB262F38BB00C044FD252F68BBE9
:1004800000C058BB362F28BB00C043FD352F68BBCA
:1004900000C058BB262F38BB00C042FD252F68BBCB
:1004A00000C058BB362F28BB00C041FD352F68BBAC
:1004B00000C058BB262F38BB00C040FD252F68BBAD
:1004C000019758BB362F28BB419147FD352F68BB9C
:1004D00001F68ACFD59709F08CCF95B38091510260
:1004E000982B988795B3809589238F838F818C83F0
:1004F000898587FF02C088858C8358856F814985EF
:100500003C812B8189819A8155BB262F35BB00C048
:1005100046FD252F65BB00C055BB362F25BB00C04F
:1005200045FD352F65BB00C055BB262F35BB00C030
:1005300044FD252F65BB00C055BB362F25BB00C031
:1005400043FD352F65BB00C055BB262F35BB00C012
:1005500042FD252F65BB00C055BB362F25BB00C013
:1005600041FD352F65BB00C055BB262F35BB00C0F4
:1005700040FD252F65BB019755BB362F25BB41910B
:1005800047FD352F65BB01F62FCF9C91809151021D
:10059000982B98879C91809589238F838F818E8358
:1005A00088E08D8358856F8149853D812E818981C1
:1005B0009A815C9347FD252F2C93262F3A9531F095
:1005C000441F6C9300C000C000C0F3CF6C930000C8
:1005D00038E04191019769F7B0935002A0934F0220
:1005E00049873D832E8303CF8F929F92AF92BF9214
:1005F000CF92DF92EF92FF924B015C0128DE6B01FC
:100600007C0125DE6C197D098E099F09683E7340C7
:1006100081059105B0F321E0821A9108A108B10883
:1006200088EEC80E83E0D81EE11CF11C81149104F1
:10063000A104B10431F7FF90EF90DF90CF90BF900D
:10064000AF909F908F900895E0911002F091110269
:10065000309729F010920D0210920C02099408951F
:10066000089585ED86BF06B604FCFDCF10920B02FF
:1006700008952091DE01260F3327331F21323105E3
:10068000ECF420910B02FC0190E080E0243069F052
:1006900082E00895A091DE012191AC0142545E4FA9
:1006A000A40FB52FB11D2C930196861798F3809156
:1006B000DE01680F6093DE0180E0089581E0089517
:1006C0000895E0910F0280910E02E81730F4F0E0F7
:1006D000E256FE4F808190E008958FEF9FEF0895DE
:1006E00090910F0280910E022FEF3FEF981748F480
:1006F000E92FF0E0E256FE4F208130E09F5F9093BB
:100700000F02C901089580910E0290910F02891B7A
:10071000990B0895CF93DF93CB01EA01642FA9DFF2
:10072000CE01DF91CF91089548E050E063E172E09F
:1007300080E392E0EFCFCF93DF931F92CDB7DEB788
:10074000698361E0CE01019694DF81E090E00F9033
:10075000DF91CF91089590E080E008951F920F926D
:100760000FB60F9211242F933F938F939F93AF93C4
:10077000BF938091280290912902A0912A02B09102
:100780002B023091270226E0230F2D3768F129E84C
:10079000230F0396A11DB11D2093270280932802E9
:1007A00090932902A0932A02B0932B0280912C02ED
:1007B00090912D02A0912E02B0912F020196A11DC1
:1007C000B11D80932C0290932D02A0932E02B09322
:1007D0002F02BF91AF919F918F913F912F910F90D9
:1007E0000FBE0F901F9018950296A11DB11DD4CF7A
:1007F0001F920F920FB60F9211242F933F934F9396
:100800005F936F937F938F939F93AF93BF93EF9378
:10081000FF9381B1887F803609F449C0E8F58832BA
:1008200009F4A2C018F5803109F498C0B8F48823FF
:1008300009F4EAC0883009F491C0FF91EF91BF91AB
:10084000AF919F918F917F916F915F914F913F9168
:100850002F910F900FBE0F901F901895883109F4BB
:1008600083C0803251F78093010214C0803409F4B0
:1008700093C040F48033B9F38833F9F680930102D2
:1008800085ECA3C0803509F47EC0883509F48CC09E
:10089000883499F6E6DED1CF883909F483C030F583
:1008A000883729F050F4883611F0803731F683E02C
:1008B00080930B021092000254C0883809F472C071
:1008C000803919F0803809F0B8CF80910002803269
:1008D00008F068C0E091000281E08E0F8093000272
:1008E00083B1F0E0E052FE4F80833BC0803B39F0A3
:1008F000E0F4803A09F46DC0883A09F09ECF84E0B4
:1009000080930B021092DF011092DE01E09107024A
:10091000F091080209958091DE0181110FC081E0FC
:100920008093DE011092BE0109C0803C09F4A8CF7B
:10093000883C09F4A5CF883B09F07FCFE091DF0127
:1009400081E08E0F8093DF01F0E0E254FE4F808162
:1009500083B99091DF018091DE0122C08091040271
:1009600083B985EC86BF69CF909103028091020222
:10097000981718F5E091030281E08E0F809303022F
:10098000F0E08081EDCFE091030281E08E0F809353
:10099000030283B1F0E08083909103028091020210
:1009A0009817F8F285E8DECFE091030281E08E0F20
:1009B0008093030283B1F0E0808380910A02811169
:1009C00069CF81E08093090284EA86BF10920B020E
:1009D00034CF85EC86BF10920B02809100028032EA
:1009E00030F4E0910002F0E0E052FE4F108260919E
:1009F000000270E0E0910502F091060280EE91E0C5
:100A000009951092000219CF1092010243CF109263
:100A100033021092320288EE93E0A0E0B0E08093BF
:100A2000340290933502A0933602B09337028AE8DD
:100A300091E0909331028093300210923D02109227
:100A4000440210924B0210924C0210924D021092EE
:100A50004E0281E080934A0280934702109248023E
:100A600092E09093490280933C0283E090E090935F
:100A700041028093400205D4909346028093450240
:100A8000009779F123E0FC0111922A95E9F781E0C2
:100A900090E090933F0280933E028DE090E090932F
:100AA00043028093420280913D02882331F061E04D
:100AB0008DE09CDB60E08DE063DBE5E7F0E0E49156
:100AC000F0E0EE0FFF1FE25AFF4F85919491909353
:100AD000500280934F02E4E5F0E0E491E09351028C
:100AE0000895109241021092400210923F0210921B
:100AF0003E02D3CFCF93DF93CDB7DEB766970FB665
:100B0000F894DEBF0FBECDBF789483B7836083BFF8
:100B100089B7816089BF82E08EBD8EB581608EBD50
:100B20008FB581608FBD85B5846085BD85B58064D6
:100B300085BD86E886B91AB861E081E157DB61E0DE
:100B400080E154DB61E08FE051DB61E08EE04EDB61
:100B500017BA8FEF88BB11BA82BB80914202909185
:100B6000430297FD71C061E041DB60E08091420289
:100B700007DB81E080933D0280913E0290913F022D
:100B8000892B21F060E070E0CB01A2DA8091450270
:100B900090914602892B09F080DB10920F0210928F
:100BA0000E0210920D0210920C0210920B0281E0C4
:100BB00080930A021092090261E082E1E1DA61E0C9
:100BC00083E1DEDA0898099880E280B985E486BF7F
:100BD00084E293E0909308028093070280E393E01D
:100BE00090930602809305028EEB82B984E993E02C
:100BF00090931102809310027E0129E0E20EF11C15
:100C0000AE014F5F5F4F5D874C8722242394312CC8
:100C1000A2E04A2E512C01E096B316B386B3AA2463
:100C2000A394582F5074B52E86FDA12C94FD28C096
:100C30001092260210922502B49909C061E070E07A
:100C400080E090E0D1DCF8CF10923D0295CF80910A
:100C5000230290912402892B31F568EC70E080E04A
:100C600090E0C2DCB4991AC0B49906C061E070E0AB
:100C700080E090E0B9DCF8CF509224024092230249
:100C800017FD37C01092260210922502B79918C09E
:100C900061E070E080E090E0A7DCF8CF30922402C1
:100CA00020922302EDCF1092240210922302109280
:100CB0002202109221021092200210921F02E0CF15
:100CC0008091210290912202892B31F568EC70E02D
:100CD00080E090E089DCB7991AC0B79906C061E05E
:100CE00070E080E090E080DCF8CF509222024092E9
:100CF0002102B11038C01092260210922502B69936
:100D000018C061E070E080E090E06EDCF8CF3092D7
:100D1000220220922102EDCF109222021092210293
:100D200010922402109223021092200210921F02AD
:100D3000E0CF80911F0290912002892B09F08BC097
:100D400068EC70E080E090E04FDCB6997FC0B69927
:100D500006C061E070E080E090E046DCF8CF5092A1
:100D6000200240921F0219861A861B86912C10E0E1
:100D7000D12CC12C60E081E139DA60E080E136DA23
:100D800060E08FE033DA60E08EE030DAC114D10445
:100D900009F06EC061E081E129DA60E081E1F0D91B
:100DA000E8D940B3409526B3209590E080E050E02C
:100DB00031E0390DBA01082E02C0759567950A9485
:100DC000E2F760FF09C0133038F4F701E10FF11DBD
:100DD000632F680F60831F5F01968830910551F77C
:100DE00090E080E030E049E0490DB901082E02C0F2
:100DF000759567950A94E2F760FF09C0133038F4DF
:100E0000F701E10FF11D542F580F50831F5F01961A
:100E10008430910551F78FEFC81AD80A9CE0990EDB
:100E2000E0E39E12A7CFF70180E0212F30E0388B5E
:100E30002F879F012E193F094F85588924173507A1
:100E400084F591919033A9F781E0F3CF309220029D
:100E500020921F0288CF1092200210921F0210923F
:100E600024021092230210922202109221027BCFC0
:100E700061E0C616D10431F461E080E1B7D960E0E9
:100E800080E18DCF61E072E0C716D10429F48FE0D4
:100E9000ADD960E08FE083CF8EE0A8D960E08EE02E
:100EA0007ECF20911F023091200290911E0291115D
:100EB000FDC0121613060CF012C18111EAC0109287
:100EC0001C0280931D02A0921B026090250270906C
:100ED0002602C3016AE070E0A7D1CB0162E070E0B6
:100EE000A3D1BC01C0902302D090240281E090E005
:100EF00052E0C516D10469F081E0C816D10409F0AA
:100F0000F1C031E020E06130710509F430E0832F59
:100F1000922FA0902102B090220221E030E041E027
:100F200050E0E2E0AE16B10479F0F1E0AF16B104A2
:100F300009F0DBC031E020E06130710509F430E0F8
:100F4000432F522F30E020E080901F02909020022B
:100F5000E2E08E16910409F4CDC0F1E08F16910401
:100F600041F4F1E0E0E06130710509F4F0E02F2F89
:100F70003E2F60911E026E87662331F030E020E044
:100F800041E050E081E090E060913E0270913F02CC
:100F9000672B01F1092E000CAA0BBB0BDC01992772
:100FA0008827052E000C660B770B762F652F542FA4
:100FB0004427842B952BA62BB72BA901330F660B47
:100FC000770B9A01AB01282B392B4A2B5B2BCA01DB
:100FD000B9017ED888E0EC85FD8511928A95E9F704
:100FE000F2E0AF16B10409F48AC021E0A216B10400
:100FF00021F4181419040CF482C080E03E853111EC
:10100000886094012150310992E02230310530F09E
:1010100091E041E0A416B10409F090E060911C0257
:10102000D70130E020E0E92FF0E0FA8BE98BAD0149
:101030004E195F09EF85F8894E175F070CF088C0DD
:101040004D91403321F46111F2CF923081F3E9895F
:10105000FA8953E0459FE00DF11D1124EE0FFF1FAB
:10106000E05AFF4F508171811C141D040CF04FC0D9
:1010700091114DC0EEEFE40FEA3008F042C058E3A2
:10108000540F70E0E2E0CE16D10409F45FC031E005
:101090003EC090911D02911114CF00931E02109238
:1010A000200210921F0200931C020BCF232B89F405
:1010B000882309F4A5C090911D029111A4C010923B
:1010C0001E02811100931C021092200210921F0236
:1010D00006C0B11004C090911B02992381F38111C5
:1010E000F0CEEDCE90E080E014CF30E020E050E094
:1010F00040E02ACF21E030E081E090E03ACF84E088
:101100007DCF4E32E9F04F32F1F03111BBCFE3E049
:10111000F0E0EC0FFD1FE20FF11D5083872B1C1434
:101120001D0464F431110AC0F2E0CF16D10429F491
:1011300054505A3118F4911101C082602F5F77CF5B
:1011400070E054E49FCF70E055E49CCF72E09FCFF5
:101150008983FE013196A3E1B2E081918D93EE1671
:10116000FF06D9F7222381F080913E0290913F0241
:10117000892B29F062E072E082E090E0A9D7009329
:101180001202112339F022C0111120C080911202E5
:101190008823E1F0CA94CD2821F410922402109201
:1011A0002302181419044CF41092200210921F020A
:1011B000109222021092210203C0AA94AB28C1F31C
:1011C0004E85411110921E0210921202809145022A
:1011D00090914602892B09F060D85FEF651A750A75
:1011E00070922602609225026AE070E080E090E052
:1011F000FBD980E090E0892B09F40ECD01D70BCD0F
:10120000B1105DCE68CFB1105CCE65CF8091450244
:1012100090914602D2D0809142029091430297FD74
:1012200002C060E0E3C7089597FB072E16F4009410
:1012300006D077FD08D00BD007FC05D03EF4909582
:1012400081959F4F0895709561957F4F0895AA1BD2
:10125000BB1B51E107C0AA1FBB1FA617B70710F0A1
:10126000A61BB70B881F991F5A95A9F780959095D3
:10127000BC01CD010895EE0FFF1F0590F491E02D04
:1012800009940F931F93CF93DF938230910510F44D
:1012900082E090E0E0915402F091550230E020E0CD
:1012A000B0E0A0E0309799F42115310509F44AC067
:1012B000281B390B24303105D8F58A819B816115B3
:1012C000710589F1FB0193838283FE0111C0408186
:1012D00051810281138148175907E0F048175907D7
:1012E00099F4109761F012960C93129713961C9331
:1012F0003296CF01DF91CF911F910F910895009306
:10130000540210935502F4CF2115310551F04217C4
:10131000530738F0A901DB019A01BD01DF01F80193
:10132000C1CFEF01F9CF9093550280935402CDCFF6
:10133000FE01E20FF31F819391932250310939830B
:101340002883D7CF2091520230915302232B41F4AE
:101350002091620030916300309353022093520237
:1013600020916000309161002115310541F42DB7C5
:101370003EB74091640050916500241B350BE0910D
:101380005202F0915302E217F307A0F42E1B3F0B19
:101390002817390778F0AC014E5F5F4F24173507E7
:1013A00048F04E0F5F1F50935302409352028193B7
:1013B00091939FCFF0E0E0E09CCFCF93DF93009735
:1013C000E9F0FC01329713821282A0915402B0918D
:1013D0005502ED0130E020E01097A1F42081318129
:1013E000820F931F20915202309153022817390720
:1013F00009F061C0F0935302E0935202DF91CF9164
:101400000895EA01CE17DF07E8F54A815B819E0166
:1014100041155105B1F7E901FB83EA8349915991DF
:10142000C40FD51FEC17FD0761F4808191810296EE
:10143000840F951FE90199838883828193819B831F
:101440008A83F0E0E0E012968D919C9113970097CB
:10145000B9F52D913C911197CD010296820F931F02
:1014600020915202309153022817390739F63097EC
:1014700051F51092550210925402B0935302A0936A
:101480005202BCCFD383C28340815181840F951F08
:10149000C817D90761F44E5F5F4F88819981480F63
:1014A000591F518340838A819B81938382832115B5
:1014B000310509F0B0CFF0935502E09354029ECF6E
:1014C000FD01DC01C0CF13821282D7CF10E0C1E44E
:1014D000D0E003C0FE01CFDE2196C234D107D1F7A0
:0414E000F894FFCFAE
:1014E400000056028000290029004C001E001E0244
:1014F4001E011F001F021F012000200220012100E5
:1015040021022101220022022201230023022301BD
:101514002400240224012500250225012600260298
:1015240026012700270227012A002A002A012B006E
:101534002B00490014002F0214011A0030021A0172
:1015440008002F00080115003000150117003800AD
:1015540017011C0031001C011800310218010C0095
:1015640035020C011200340012011300340213017D
:10157400000000000000500050004A0052005200D9
:101584004B00040033000401160033021601070067
:101594003500070109002E0209010A002D000A0185
:1015A4000B002D020B010D002E000D010E00380260
:1015B4000E010F0000000F0128002800490251000D
:1015C40051004E004F004F004D001D0000001D0152
:1015D4001B0000001B0106000000060119000000AA
:1015E400190105000000050111000000110110009F
:1015F4000000100136003602360137003702370189
:101604002C002C000000000000009B038A03AB03A5
:0816140060038303700361030E
:00000001FF
